{
  "transactions": [
    {
      "hash": "0xa5bc8f5ab2e1eaf0f48f16d57f88a5b06a0b0907251c3cff7490eb447946912d",
      "transactionType": "CALL",
      "contractName": null,
      "contractAddress": "0xa0c2b9335491cd0dddf5f1dab469709fcc259a5a",
      "function": "updateSettler(address)",
      "arguments": [
        "0x0487Ecf457cEAdc4Be25676EDE5F634fdcDdbF4d"
      ],
      "transaction": {
        "from": "0xcc4a81f07d9e925e90873349c903e3fe93099b0a",
        "to": "0xa0c2b9335491cd0dddf5f1dab469709fcc259a5a",
        "gas": "0xb0b2",
        "value": "0x0",
        "input": "0x6d149b0f0000000000000000000000000487ecf457ceadc4be25676ede5f634fdcddbf4d",
        "nonce": "0x6",
        "chainId": "0x14a34"
      },
      "additionalContracts": [],
      "isFixedGasLimit": false
    }
  ],
  "receipts": [
    {
      "status": "0x1",
      "cumulativeGasUsed": "0x202e0e",
      "logs": [
        {
          "address": "0xa0c2b9335491cd0dddf5f1dab469709fcc259a5a",
          "topics": [
            "0x7c72fae177c59a6c85f9a5eca78d204b4a8ad5b668e5beb8c24464870af7160c",
            "0x000000000000000000000000cc4a81f07d9e925e90873349c903e3fe93099b0a",
            "0x0000000000000000000000000487ecf457ceadc4be25676ede5f634fdcddbf4d"
          ],
          "data": "0x",
          "blockHash": "0x834b267afffcaf51f25c7f663a091b7f4fd1ead10e7be0853713552382b1cc08",
          "blockNumber": "0x1eef13b",
          "blockTimestamp": "0x68f14156",
          "transactionHash": "0xa5bc8f5ab2e1eaf0f48f16d57f88a5b06a0b0907251c3cff7490eb447946912d",
          "transactionIndex": "0x18",
          "logIndex": "0x21",
          "removed": false
        }
      ],
      "logsBloom": "0x00000000000040000000000000000000000000008000000000000000000000000000008000000000000000000000000002000000000000000000000000000000000000000000000000000000000000000000000000000000000000000000000000000000000000000000000100000000000000000000000000004000000000001000000002000000000000000000000004000000000008080000000000000000000000000000000000000000000000000000000000000000000000000000000000000000000000000000000000004000000000000000000000000000000000000000000000000000000000000000000000000000000000000000000000000000",
      "type": "0x2",
      "transactionHash": "0xa5bc8f5ab2e1eaf0f48f16d57f88a5b06a0b0907251c3cff7490eb447946912d",
      "transactionIndex": "0x18",
      "blockHash": "0x834b267afffcaf51f25c7f663a091b7f4fd1ead10e7be0853713552382b1cc08",
      "blockNumber": "0x1eef13b",
      "gasUsed": "0x78d2",
      "effectiveGasPrice": "0xf42c4",
      "from": "0xcc4a81f07d9e925e90873349c903e3fe93099b0a",
      "to": "0xa0c2b9335491cd0dddf5f1dab469709fcc259a5a",
      "contractAddress": null,
      "l1BaseFeeScalar": "0x44d",
      "l1BlobBaseFee": "0x1",
      "l1BlobBaseFeeScalar": "0xa118b",
      "l1Fee": "0x50",
      "l1GasPrice": "0x8",
      "l1GasUsed": "0x640"
    }
  ],
  "libraries": [],
  "pending": [],
  "returns": {},
  "timestamp": 1760641366,
  "chain": 84532,
  "commit": "4a7160c"
}