{
  "transactions": [
    {
      "hash": "0x4ef7880350edab345f2a2703e854cbb7bbfa59e51c7e7dc50c13ac4a577443dc",
      "transactionType": "CALL",
      "contractName": null,
      "contractAddress": "0xa0c2b9335491cd0dddf5f1dab469709fcc259a5a",
      "function": "updateSettler(address)",
      "arguments": [
        "0x2FCEBBc1772f307B4BDAae06FeA0B49Bdf00b7a6"
      ],
      "transaction": {
        "from": "0xcc4a81f07d9e925e90873349c903e3fe93099b0a",
        "to": "0xa0c2b9335491cd0dddf5f1dab469709fcc259a5a",
        "gas": "0xa6d1",
        "value": "0x0",
        "input": "0x6d149b0f0000000000000000000000002fcebbc1772f307b4bdaae06fea0b49bdf00b7a6",
        "nonce": "0x7",
        "chainId": "0x14a34"
      },
      "additionalContracts": [],
      "isFixedGasLimit": false
    }
  ],
  "receipts": [
    {
      "status": "0x1",
      "cumulativeGasUsed": "0x5bbbd6",
      "logs": [
        {
          "address": "0xa0c2b9335491cd0dddf5f1dab469709fcc259a5a",
          "topics": [
            "0x7c72fae177c59a6c85f9a5eca78d204b4a8ad5b668e5beb8c24464870af7160c",
            "0x0000000000000000000000000487ecf457ceadc4be25676ede5f634fdcddbf4d",
            "0x0000000000000000000000002fcebbc1772f307b4bdaae06fea0b49bdf00b7a6"
          ],
          "data": "0x",
          "blockHash": "0x0d4433c531eaf973b3ab0e81308abb1a61083a43fda35d1332f1ab13c9129b34",
          "blockNumber": "0x1eef2cc",
          "blockTimestamp": "0x68f14478",
          "transactionHash": "0x4ef7880350edab345f2a2703e854cbb7bbfa59e51c7e7dc50c13ac4a577443dc",
          "transactionIndex": "0x24",
          "logIndex": "0x32",
          "removed": false
        }
      ],
      "logsBloom": "0x00000000000040000000000000000000000000008000000000000000000000000000008000000000000000000000000002000000000000000000000000000000000000000000000000000000000000000000000000000000000000000000000004000000000000000000000108000080000000000000000000000000000000001000000002000000000000000000000000000000000008080000000000000000000000000000000000000000000000000000000000000000000000000000000000000000000000000000000000000000000000000000000000000000000000000000000000000000000000000000000000000000000000000000000000000000",
      "type": "0x2",
      "transactionHash": "0x4ef7880350edab345f2a2703e854cbb7bbfa59e51c7e7dc50c13ac4a577443dc",
      "transactionIndex": "0x24",
      "blockHash": "0x0d4433c531eaf973b3ab0e81308abb1a61083a43fda35d1332f1ab13c9129b34",
      "blockNumber": "0x1eef2cc",
      "gasUsed": "0x78c6",
      "effectiveGasPrice": "0xf4292",
      "from": "0xcc4a81f07d9e925e90873349c903e3fe93099b0a",
      "to": "0xa0c2b9335491cd0dddf5f1dab469709fcc259a5a",
      "contractAddress": null,
      "l1BaseFeeScalar": "0x44d",
      "l1BlobBaseFee": "0x1",
      "l1BlobBaseFeeScalar": "0xa118b",
      "l1Fee": "0x55",
      "l1GasPrice": "0xb",
      "l1GasUsed": "0x640"
    }
  ],
  "libraries": [],
  "pending": [],
  "returns": {},
  "timestamp": 1760642169,
  "chain": 84532,
  "commit": "4a7160c"
}